:06000000020F2602172E7C
:03000B0002184D8B
:0300130002184987
:03001B0002184E7A
:0300230002184F71
:03002B00020CCCF8
:0300330002185060
:03003B0002185157
:030043000218524E
:03004B0002185345
:030053000218444C
:030063000218542C
:03006B0002185523
:030073000218561A
:03007B0002185711
:0300830002185808
:100100000203A8E86480F8E933E83360110460F082
:10011000ED33EC337009E8FCE9FDEAFEEBFF220465
:1001200060DED3EB9FEA9EE99DE8C2E78CF0C2F760
:1001300095F0400CE8CCF8E9CDF9EACEFAEBCFFB2C
:1001400012037385D0F05804700320D5B3E804700F
:10015000075002B2D50203B292D5EC0460F7E4CCAA
:10016000C0E0C398F8603B94186008400DD0E0FBF5
:1001700002038AE4FBFAC9FC8028E830E406E4C9FB
:10018000FBE4CAFCE830E305E4C9CACBFCE8540749
:100190006010F8C3E913F9EA13FAEB13FBEC13FC54
:1001A000D8F130F52FC3E49CFCEF9BFFEE9AFEEDF7
:1001B00099FDD0E0FBEF4E4D4C701222DB030203A1
:1001C000AFEC2CFCEF33FFEE33FEED33FDED30E70B
:1001D000EB02038AEF2BFFEE3AFEED39FDD0E0FB98
:1001E00050130BBB00030203B2ED13FDEE13FEEF41
:1001F00013FFEC13FC02038AEC4D6011E849701701
:10020000ED33EC3304600DE4FCFFFEFD22E933E83E
:10021000330470F80203A812037358046009E4CC95
:10022000248150062850090203B22840030203AF7C
:10023000C0E0EB4A7044B98006D0E0FB02039EEFB9
:100240004E701CBD8008EBFFEAFEE9FD80EBE98DF6
:10025000F0A4FEE5F00202E1E9CDF9EAFEEBFFEFE2
:1002600089F0A4FCE5F0CE89F0A42EFFE435F0CDB2
:1002700089F0A42DFEE435F08067EF4E7005BD8057
:10028000D780C3EF8BF0A4ACF0EE8BF0A42CFCE491
:1002900035F0F8EF8AF0A42CE5F038FCE433CB8D90
:1002A000F0A42CFCE5F03BF8EE8AF0A42CFCE5F081
:1002B00038F8E433CF89F0A42CFCE5F038CF3400D3
:1002C000CE89F0A42FFFE5F03EFEE433C98DF0A403
:1002D0002EFEE5F039CD8AF0A42FFFE5F03EFEE4D6
:1002E0003DFD33D0E0FB50070BBB000F0203B2EC27
:1002F0002CFCEF33FFEE33FEED33FD02038A75F085
:1003000020800E75F010800575F0087D007E007F5E
:10031000003392D530D50312047AEC334010EF331A
:10032000FFEE33FEED33FDEC33FCD5F0ED22E5F0CE
:10033000247EA2D513CC92E7CDCEFF22EDD2E7CD1D
:1003400033EC3392D524814006E4FFFEFDFC22FC11
:10035000E4CFCECDCC24E0501174FF80EDC3CC139C
:10036000CCCD13CDCE13CECF13CF0470F030D5DE6D
:1003700002047AE9D2E7C933E833F892D5EDD2E73F
:10038000CD33EC33FC5002B2D522EC30E7100FBF76
:10039000000C0EBE00080DBD00040BEB6014A2D5CE
:1003A000EB13FCED92E7FD2274FFFCFDFEFF22E45F
:1003B00080F8A2D574FF13FC7D80E480EFBB0106BA
:1003C00089828A83E0225002E722BBFE02E322896F
:1003D000828A83E49322BC000BBE0029EF8DF08457
:1003E000FFADF022E4CCF875F008EF2FFFEE33FEFE
:1003F000EC33FCEE9DEC984005FCEE9DFE0FD5F035
:10040000E9E4CEFD22EDF8F5F0EE8420D21CFEAD3D
:10041000F075F008EF2FFFED33FD4007985006D53B
:10042000F0F222C398FD0FD5F0EA22E88FF0A4CCB9
:100430008BF0A42CFCE98EF0A42CFC8AF0EDA42C0B
:10044000FCEA8EF0A4CDA8F08BF0A42DCC3825F0DA
:10045000FDE98FF0A42CCD35F0FCEB8EF0A4FEA9C5
:10046000F0EB8FF0A4CFC5F02ECD39FEE43CFCEAD2
:10047000A42DCE35F0FDE43CFC22C3E49FFFE49EB6
:10048000FEE49DFDE49CFC2275F008758200EF2FD0
:10049000FFEE33FECD33CDCC33CCC58233C5829B4A
:1004A000ED9AEC99E58298400CF582EE9BFEED9A70
:1004B000FDEC99FC0FD5F0D6E4CEFBE4CDFAE4CC0C
:1004C000F9A88222B800C1B90059BA002DEC8BF00E
:1004D00084CFCECDFCE5F0CBF97818EF2FFFEE33CB
:1004E000FEED33FDEC33FCEB33FB10D703994004F6
:1004F000EB99FB0FD8E5E4F9FA227818EF2FFFEE1D
:1005000033FEED33FDEC33FCC933C910D7059BE94D
:100510009A4007EC9BFCE99AF90FD8E0E4C9FAE4A9
:10052000CCFB2275F010EF2FFFEE33FEED33FDCC48
:1005300033CCC833C810D7079BEC9AE899400AED32
:100540009BFDEC9AFCE899F80FD5F0DAE4CDFBE4DA
:10055000CCFAE4C8F922202703302209201106052D
:1005600028C227C22230250E20110B1528C225E5EE
:1005700028700375280330110BC21185402985416D
:100580002A853A2BE52824FE6051147003020613D5
:1005900014700302064B2403600302064DD202C20C
:1005A00003C204302016E53270120529C220F54D31
:1005B000F54EE529C394184003E4F52920230302EE
:1005C000064DE532600302064D1529C223F54DF5AF
:1005D0004EE529F470777529178072C202D203C2E2
:1005E00004302016E5327012052AC220F54DF54E72
:1005F000E52AC3943C4003E4F52A302350E53270E9
:100600004C152AC223F54DF54EE52AF4703F752AA4
:100610003B803AC202C203D204302016E532701287
:10062000052BC220F54DF54EE52BC394074003E49E
:10063000F52B302318E5327014152BC223F54DF538
:100640004EE52BB4FF07752B068002D21230151D24
:10065000C215300206B205D206D207300306D20513
:10066000B206D207300406D205D206B207C3E54E61
:100670009402E54D9400400EA2059238A2069239EC
:10068000A207923A8006D238D239D23AAB2BAD2AA1
:10069000AF291211E17B017D107F0612156AC3E5B7
:1006A0004E940AE54D94004006754D00754E02309B
:1006B0001242852B3AE52A75F00A84C454F0FFE50E
:1006C0002A75F00A84EF25F0F52AE52975F00A84E9
:1006D000C454F0FFE52975F00A84EF25F0F529AD43
:1006E0002A7F03121662AD297F04121662C212C25B
:1006F0000D752801228F68E5687069FB7D807F0396
:1007000012156AE4FB7D807F0112156AE4FB7D10FF
:100710007F1112156AE4F569E4FB7D407F1812151C
:100720006AE56990186293FFE5699018CB93FDE440
:10073000FB12156AE56990186993FFE5699018CB7B
:1007400093FDE4FB12156AE56990187093FFE56963
:100750009018CB93FDE4FB12156A0569E569C39413
:100760000740B522E56864017066F569E56990188F
:100770007793FFE5699018CB93FDE4FB12156AE5CA
:100780006990187E93FFE5699018CB93FDE4FB1206
:10079000156AE56990188593FFE5699018CB93FD7C
:1007A000E4FB12156AE56990188C93FFE5699018CF
:1007B000CB93FDE4FB12156AE5699018E293FFE420
:1007C000FB7D8012156A0569E569C39407409D2287
:1007D000E568B4021AE4FB7D807F1812156AE4FB19
:1007E0007D807F1B12156AE4FB7D407F1B8046E500
:1007F00068B40305E4FF0210B2E568B4041AE4FB30
:100800007D207F1B12156AE4FB7D207F1812156A7C
:10081000E4FB7D107F16801DE568B4051BE4FB7DBD
:10082000807F1812156AE4FB7D807F1912156AE437
:10083000FB7D407F1902156AE568B4061AE4F56984
:10084000E5699018D993FFE4FB7D1012156A0569DC
:10085000E569C3940940E922E4F567301108C21143
:100860001213B3752C01302009E532B40804052CAD
:10087000C220302310E532B4080B152CC223E52C1E
:100880007003752C0330250AE532B40805E4F5320F
:10089000C225E52C24FE602114603514604E24032B
:1008A000704DD208C209C20A202209302741E53220
:1008B0006408703B753201802BC208D209C20A203D
:1008C000220930272AE53264087024753202801428
:1008D000C208C209D20A302216302713E532B40802
:1008E0000E753203C222C227D2118003752C01205B
:1008F000130302099E7F011206F5E4FF1206F57F3D
:10090000061206F5E4FB7D107F0612156AC213304D
:10091000083AD23BE4FD7F0112105FD23B7D017F9C
:100920000212105FE4F567AF671217C20567E5674B
:10093000C3940740F2D238D239D23AAB3AAD41AF84
:10094000401211E17B017D107F06804F300923D2D8
:100950003BE4FD7F0112105FD23B7D027F0212104B
:100960005FD238AF3A12173E7F071217C27F0802D4
:1009700017C2300A297F061206F5D23BE4FD7F013B
:1009800012105FD23B7D037F0212105F7B017D80DE
:100990007F0312156A7B017D807F0112156A223068
:1009A000340DC237E4F564F561D2DBD286C234E59A
:1009B00064C3940F500C7D017F01121679E4F56534
:1009C000F566E564D394144019E56665607004E546
:1009D00065655F600B85655F856660E4F561800233
:1009E000D237E561D3940F5003020AE0D3E5669451
:1009F00000E56594004032AE65AF66E4FCFD7B71B6
:100A00007A02F9F812042BEF246FFFEE345CFEED4E
:100A100034F8FDEC34FFFCE47BE87A03F9F81212B9
:100A2000C68E628F63C2358002D235C3E5669401FB
:100A3000E5659405503BE56324E2FDE56234FFFC87
:100A4000E41203037B0A7AD779A3783B1201F8C03A
:100A500004C005C006C007AC62AD63E4120303D056
:100A600003D002D001D00012010712033C8E628F26
:100A700063D3E5669401E56594054008E5669461F5
:100A8000E5659409D3E5669461E5659409403A7497
:100A9000649563FDE49562FCE41203037BA67A9BF4
:100AA0007944783C1201F8C004C005C006C007AC08
:100AB00062AD63E4120303D003D002D001D0001270
:100AC000010712033C8E628F63E4FDFF121679C2A8
:100AD000DBC286C237C236E4F564F561F565F566BA
:100AE00022015A00015400015500015E0102580024
:100AF00000025B0000015700015600015D00014F3C
:100B000000014700014800015301024B0000025060
:100B10000000014A00014900015200C119C11AC177
:100B20001BC11DC11EC113C118C114C115C116C1FD
:100B300017C11C024D000002450000011300010D09
:100B400000010E0001170102110000021400000153
:100B50001000010F00011600C11FC123C120C127D1
:100B6000C126C129C128020B0000011C00011D0083
:100B7000C134C135C136C13701640001610002656D
:100B8000000002620000025F0000013700012E0039
:100B9000012F00014401023300000238000001313E
:100BA00000013000014300C10DC10FC10BC10CC1D8
:100BB00010C111C112C10E093A000100000000006D
:100BC0000000013200023501040128010129000161
:100BD0002A00012B00C102C103C104C185C186C125
:100BE00087012C01C108C109C10A012D0000302173
:100BF0000DE5327009200D06C221D211D20D30222E
:100C00000DE5327009200D06C222D211D20F302418
:100C10000DE5327009200D06C224D211D20B302509
:100C20000DE5327009200D06C225D211D20C3023F9
:100C300017E5327013200D10C223F54DF54ED2107A
:100C4000E536153670021535302017E53270132061
:100C50000D10C220F54DF54ED2100536E536700266
:100C6000053530260EE532700A200D07C226753292
:100C700008D211E5327003120E69300D07E53270AB
:100C800003120556300F0A200D07E53270031217C4
:100C9000CF300B0A200D07E532700312183E300CDE
:100CA0000A200D07E532700312176EE532B408030F
:100CB000120858E532B401031213E8E532B4020316
:100CC000121859E532B4030312185A22C0E0C0F0DA
:100CD000C083C082C0D075D000C000C001C002C0B7
:100CE00003C004C005C006C0071215F0C2CF0546F8
:100CF000E546700205453036070564303702056168
:100D0000AE45AF467C007D051203D6ED4C7002D295
:100D10001BAE45AF467C007D0A1203D6ED4C700534
:100D2000D21D120FC0AE45AF467C007D641203D6C3
:100D3000ED4C7002D213AE45AF467C007DC8120365
:100D4000D6ED4C7002D214AE45AF467C017D2C121C
:100D500003D6ED4C7002D215AE45AF467C017DF452
:100D60001203D6ED4C700AD217054EE54E700205FF
:100D70004DAE45AF467C037DE81203D6ED4C7006C0
:100D8000D21CD236D234D007D006D005D004D0033E
:100D9000D002D001D000D0D0D082D083D0F0D0E02B
:100DA00032EF701FEB7006EDF4529A529BBB0107B5
:100DB000EDF4529AED429BEB64026003020E68ED83
:100DC000429A22EF6401701FEB7006EDF4529152CB
:100DD00092BB0107EDF45291ED4292EB6402600385
:100DE000020E68ED429122EF6402701CEB7006ED7A
:100DF000F452A152A2BB0107EDF452A1ED42A2EBC5
:100E000064027064ED42A122EF6403701CEB700673
:100E1000EDF452B152B2BB0107EDF452B1ED42B262
:100E2000EB64027043ED42B122EF6404701CEB707E
:100E300006EDF452C152C2BB0107EDF452C1ED42BE
:100E4000C2EB64027022ED42C122EF64057019EB1F
:100E50007006EDF452D952DABB0107EDF452D9ED28
:100E600042DABB0203ED42D922301B05C21B12132A
:100E70000A30360312099F301379C2137F0112061C
:100E8000F5E4FF1206F57F061206F5200D1BD23899
:100E9000D239D23AAB3AAD41AF401211E1A200E4EF
:100EA00033FB7D107F0612156A200F05AF3F12102D
:100EB000B2200C08200B05AF3B12123A2010212063
:100EC000350F85623C85633DAF3DAE3C12117D80A0
:100ED0000A7F787E0312117D1215467F021212805E
:100EE000E53F7006A20133FB80027B017D107F1479
:100EF00012156A30170DC217200D02B200E53F70BF
:100F000002B20130101285353C85363DAF3DAE3C16
:100F100012117D7F01121280C3E54E9404E54D94B9
:100F2000004002C2102278FFE4F6D8FD9000007F56
:100F3000007E10E4F0A3DFFCDEFA75816E020F7B09
:100F40000217B5E493A3F8E493A34003F68001F2FB
:100F500008DFF48029E493A3F85407240CC8C333B2
:100F6000C4540F4420C8834004F456800146F6DF81
:100F7000E4800B0102040810204080900AE1E47E26
:100F8000019360BCA3FF543F30E509541FFEE49376
:100F9000A360010ECF54C025E060A840B8E493A33D
:100FA000FAE493A3F8E493A3C8C582C8CAC583CA68
:100FB000F0A3C8C582C8CAC583CADFE9DEE780BE20
:100FC00020C212E508C394FA50020508E508C3944C
:100FD000C84002D22430C214E508C394325008E558
:100FE0000894004002D225E4F508C22420C012E58E
:100FF00009C394FA50020509E509C394C84002D216
:101000002130C014E509C394325008E5099400402A
:1010100002D222E4F509C22120C112E50AC394FAE2
:101020005002050AE50AC394C84002D22630C11412
:10103000E50AC394325008E50A94004002D227E43E
:10104000F50AC226227C037DE81203D67E007F6467
:10105000CFCDCFCECCCE1203D6AD07D23B7F018F02
:101060006B8D6CE4F56DE56B75F007A4245BF58280
:10107000E43418F583E582256DF582E43583F58344
:10108000E493FFE56C75F007A42493F582E434182B
:10109000F583E582256DF582E43583F583E493FDE0
:1010A000A23BE433FB12156A056DE56DC39407405E
:1010B000B522EF14601114601414601B1460222414
:1010C000047026C2308002D230C2318004D230D2C5
:1010D00031C232C2338012D230D231D232C23380E6
:1010E00008D230D231D232D233A230E433FB7D1079
:1010F0007F1312156AA231E433FB7D107F101215A5
:101100006AA232E433FB7D107F0E12156AA233E42B
:1011100033FB7D107F0B02156A7B017D027F02127B
:101120000DA17D037F021214CAE4FD7F011216A5F2
:101130007B017D047F04120DA17B017D027F0412DF
:101140000DA17B017D017F04120DA17D027F07129D
:10115000149FE4FD7F0112168F7B017D40E4FF1296
:101160000DA17B017D80E4FF120DA17D027FC012E5
:101170001474E4FDFF121679C2DBC286228E678FDB
:1011800068D3E56894E7E567940340097B017D40F7
:101190007F1812156A7B017D807F0112156AAE6788
:1011A000AF68121045AE67AF687C007D641203D64D
:1011B0007E007F0ACFCDCFCECCCE1203D6AD07D2E4
:1011C0003B7F0212105FAE67AF687C007D0A12039E
:1011D000D6D23B7F0312105F7B017D107F11021579
:1011E0006A8F688D698B6AE56875F00A84FDA2389C
:1011F000923B7F0412105FE56875F00A84ADF0A29F
:1012000038923B7F0512105FE56975F00A84FDA2F4
:1012100039923B7F0612105FE56975F00A84ADF0E4
:10122000A239923B7F0712105FE56A9018E293FFA4
:10123000A23AE433FB7D8002156AEF24FE600F14AE
:10124000601424027016D22AC22BC22C800EC22A2D
:10125000D22BC22C8006C22AC22BD22CA22AE43363
:10126000FB7D807F1812156AA22BE433FB7D807F03
:101270001912156AA22CE433FB7D407F1902156A0E
:10128000EF24FE600F14601424027016D22DC22EBB
:10129000C22F800EC22DD22EC22F8006C22DC22E8A
:1012A000D22FA22DE433FB7D207F1912156AA22EC6
:1012B000E433FB7D207F1812156AA22FE433FB7DF7
:1012C000107F1602156AC2D5E830E70FB2D5E4C325
:1012D0009BFBE49AFAE499F9E498F8EC30E717B24A
:1012E000D51212FC1204C4E4C39BFBE49AFAE499FD
:1012F000F9E498F880031204C430D50DE4C39FFFCD
:10130000E49EFEE49DFDE49CFC227F021215B1EFF9
:10131000547FF5677F031215B1EF547FF5687F04A2
:101320001215B1EF543FF569AF6712170C8F6BAF11
:101330006812170C8F6CAF6912170C8F6D856D409A
:10134000856C4122AD07E4FCC2DC7F02121784EDFC
:1013500030E704D2DD8002C2DD7F01121784D2DCC7
:10136000ED25E0FD7F01121784C2DC7F0212178495
:101370000CBC08DBD2DDC2DC7F020217847B017D5E
:10138000017F02120DA17B027D017F05120DA17B61
:10139000027D027F05120DA17B027D087F05120DE3
:1013A000A17B027D107F05120DA17B017D207F05B1
:1013B000020DA1E4FF1206F57F011206F57F02126D
:1013C00006F57F031206F57F041206F57F05120667
:1013D000F57F061206F5E4FB7D107F0612156AE420
:1013E000FB7D107F1402156A3011051213B3C21170
:1013F000202008302209E532B40104052DC2202046
:101400002308302509E532B40104152DC223302705
:1014100007E532B40102D21222E4FDFCD2DD53D939
:10142000DF43DA20C2DC7F0112177DEC25E0FCA24D
:10143000DDE43342047F01121784C2DC7F011217FE
:10144000840DBD08DFAF0422121344121453AF03FE
:10145000121344E4FD53D9DF43DA2012178030DD44
:1014600009EDC394FA50030D80F4C2DC43D9307FF8
:1014700002021784ED24FE60121460151460192412
:1014800003701BEF42BBEFF452B422EFF452BB8067
:1014900003EF42BBEF42B422EFF452BB52B422ED51
:1014A00024FE60121460151460192403701BEF42AF
:1014B000BDEFF452BC22EFF452BD8003EF42BDEF0A
:1014C00042BC22EFF452BD52BC22ED24FE60121445
:1014D00060151460192403701BEF42BFEFF452BE75
:1014E00022EFF452BF8003EF42BFEF42BE22EFF47F
:1014F00052BF52BE22E4FD7F02121662E4FD7F035A
:10150000121662E4FD7F041216627D017F05121639
:10151000627D017F071216627D207F08021662E459
:10152000FF1217F4756AFC756BFF7BFF7D3F7F3000
:101530001216FA7B01E4FD7F0A12174EE4FF121720
:10154000FF7F0102180AE4FB7D407F1512156AE453
:10155000FB7D207F1512156AE4FB7D207F13121599
:101560006AE4FB7D207F1002156AEB600E74002F89
:10157000F582E43410F583E04DF02274002FF582FB
:10158000E43410F583E0FFEDF4FEEF5EF022E4FFBB
:10159000121815E4FF12178BE4FF12162EE4FF1247
:1015A0001799E4FF121820E4FF12182BE4FF02172A
:1015B000A7AB071216BB7FA21214481216BB7FA35B
:1015C000121344121453121419AD071216D0AF059A
:1015D00022E4FD7F0112160F7F0112171D7F007E8E
:1015E0008312175EE4FD7F011216E57F010217E802
:1015F000301F1B30A10C20A002D22030A00ED2231D
:10160000800A30A002D22020A002D223C21F22755D
:10161000CE02BF010553C8FD8006BF020343C802C6
:10162000ED700453C9FE22BD100343C9012275FEAB
:10163000C2BF400653FF3F43FF40BF800653FF3FFA
:1016400043FF80EF700353FF3F2212137D12158E6C
:101650001215D112111912111912111912151FD2C6
:10166000AF22AB05AA071216BB7FA21213441214B5
:1016700053AF021214480216D0EF600543A8018050
:101680000353A8FEED700453B8FE2243B80122EFC5
:10169000600543A804800353A8FBED700453B8FB16
:1016A0002243B80422EF600543A908800353A9F739
:1016B000ED700453B9F72243B9082243D930D2DC84
:1016C000D2DD7F01121784C2DDC2DC7F02021784E3
:1016D00043D930C2DCC2DD7F02121784D2DCD2DDF6
:1016E0007F0202178475CE02EF7004C2AD8002D271
:1016F000ADED7003C2BD22D2BD22E59354CF4FF5AC
:10170000938D9C8B94856AA3856BB322EF540FFE57
:10171000EF54F0C4540F75F00AA42EFF2275CE02C8
:10172000EF700453C97F22BF010343C98022C0E088
:101730000566E566700205655388FDD0E032EF90DE
:1017400018E293FFA238E433FB7D8002156AE5932B
:1017500054B04FF593E58F54F24D4BF58F2275CE73
:1017600002AD078DCA8ECB85CACC85CBCD22053B79
:10177000E53BC394034003753B01C20C221217845E
:10178000D2DC7F01AE071FEE70FA2275FEC1EF704A
:101790000453FFBF2243FF402275FEC1EF70044394
:1017A000FF082253FFF72275FEC2EF700443FF10BB
:1017B0002253FFEF2212164A1217DCD2D8120BEE78
:1017C00080F9EF9018D993FF7B017D1002156A050F
:1017D0003FE53FB40503E4F53FC20F22121836E49B
:1017E000FDFF1216620214F575CE02EF7003C2CA35
:1017F00022D2CA22BF0104439340225393BF22BF87
:101800000104438F0222538FFD22EF700453937F14
:10181000224393802275FEC1E5FF54CF4FF5FF228E
:1018200075FEC1E5FF54F84FF5FF2275FEC2E5FFD6
:1018300054F34FF5FF2243D930D2DDD2DC22753B81
:1018400003C20B22D21FC2CF325388F73232323258
:101850003232323232323232322222000000000082
:101860000000161515161717161312121314141359
:10187000100F0F101111100B0A0A0B0E0E0B080798
:101880000708090908050404050606050201010206
:101890000303028040202020400000402000000080
:1018A00000804000202000408040202000004000B8
:1018B0004020000040408000202000404080002068
:1018C0002020404080402000000000804020202058
:1018D0004040804020200040401715120F0A0701A9
:0918E00018190E17151412110F4E
:00000001FF
